:20000000004B0020DD650100FDC90110FDC90110FDC90110FDC90110FDC90110FDC9011028
:1C002000FDC90110FDC90110FDC90110FDC90110FDC90110FDC901103BCA0110A4
:20003C00BD0400214D040021810400218504002121050021A10500215106002179060021DA
:20005C00F8B51047F8B50E4600210125AD0430470A48037800F00FF89B070BD0124C2078D9
:20007C00FF2807D0FF2121700E490F24240220436031C882F8BDF8B5014800476B02002147
:20009C00E54C0000094801E00848000C064C05492278FF2A01D1CA7A22706031C8827046E9
:2000BC00801C004700620840C8060021070F0808F0B4084710B501480047000089090000A8
:2000DC0070B503461546012906D0002906D0114A2846FFF7B5FF70BD0F4800E00F480524E5
:2000FC00834203D84008641E002CF9DCE340012040031818820B012907D006490023803111
:20011C002846FFF79FFFE0B270BD0249044B6C31F6E70000835C0000A0BC862300830D2357
:20013C0098060021F8B51A4E0546716B1948CC09E401002D11D01849097802290FD0007B18
:20015C00044372B60120154F4002B847114820380088C109C90704D016E0C07AF0E7407BE5
:20017C00EEE70F497463CC61400AC0070CD001208003316B002D01D0014300E081430846D1
:20019C0031630749403948630020B84762B6F8BD80020021880000219B0200217B3F00008B
:2001BC004040044010B5224A0021516121498968C90009D42149204BCA0598424B6B01D84D
:2001DC00134300E093434B631D49FFF771FF10BD38B51A4D287F002827D11A480088C009E2
:2001FC00C00722D1124C606900281ED1684600F04FF868460078012817D168464078102831
:20021C0013D208206061686A4009400120600E4A0021D1620D4A0221116001210843206094
:20023C00032108436862206038BD0948804738BD00400440180000210000930880020021EC
:20025C00CF680000680000210011044080E200E0C33B00000749002800D00420064A72B649
:20027C000978C90701D0105800E0802062B640B2704700006B0200215860044010B5034CF9
:20029C00FFF718FF20680028FAD110BD0011044003B40148019001BDA56F00000000000035
:2002BC00010003000A001F005900EB003902EA04F9099712EB1FA132784A0A66FA828C9E28
:2002DC0063B617C964D6EDDEC1E3E0E5FF000000A36100007F1407134D00F1242E1F133FEA
:2002FC00B00A3F0007FF0000304000400140034007400F404F40CF40CF41CF43CF47CF4F25
:20031C00CF3FCF2FCF1FCF0F000000000F00080000003F00000040003F00000004006800A8
:20033C000E00DC00060043001A00050000000000020000003F00000000000400C00000004A
:20035C000400C0000000070050C00091007070C00091007082312100319110B1007001812B
:20037C0001B100A18231329110B101911110418141224F40F106007051C0019130181039D5
:20039C00833108D01831416F3100319110B1831414165B680070251050C00091F4C3C0C007
:2003BC002014036F3110410422C082312100319110B163393110410482C0823121003191C2
:2003DC0010B163393110A2C082312100319110B1501015310514059200703F6452C03110EE
:2003FC0031066131C102426412C13110213971065131E102426400708A65996588C0208278
:20041C0050398039001E9F4041C001301814181A89C0308260398039001EA94041C001306B
:20043C001914191A3C64369110B1349110B154B0007154A064B0F0800022AF404012B09002
:20045C0032B053825339533985643F6411C122C1426470C1C26811C1C2C0426470C1C76815
:20047C0050C00091277298921516141642105310F0C12182313131398139313151B070B293
:20049C0072652772999270B262107310F0C331822131213981391B107265E2C08231608289
:2004BC0080318039020061B00071329110B151A061B0277230C2F36800008012B09032B012
:2004DC00007050C000912772999262107310F0C3318221312139813951B070B27E652772CB
:2004FC00989270B242105310F0C1218231313139813931311A107E6551A061B02772B0C08B
:20051C0018693F6401C122C1426401C1C2C04264151A3C64359110B153828564C012B09040
:20053C0032B000703F6472C281C0426422C111C1426402C011C1426462C031C3426462C319
:20055C0011C1426402C311C14264538253398564E2C347641122404142C281C8426452C275
:20057C0011C1426472C2E1CE426402C281C8426402C201C84264B0C0546900703F6442C234
:20059C0001C8426452C211C0426472C2E1C0426402C001C1426462C001C3426422C101C16F
:2005BC00426462C301C1426402C301C1426453828564007061B000711214231C7A4D33911F
:2005DC0010B10070329110B17269007061B000711318321C8649329110B10070339110B1BC
:2005FC007E690070C2C047641510C2C01216476441311514C0C0803105145410A078040478
:20061C000070E6C0863101CC161467106182F0C3010417140070067305720B720E7250B060
:20063C000071818060B050A092804122C3458080F1C11004301601110114016CD661D761A0
:20065C00D861D961DA61DB61DC61DE61E061E261E461366339639180F2C0210421318280DE
:20067C00422A1214321601112114016CEE610B62F4613963EE610B62F4613963E661E661E8
:20069C00E661E661E661E6619464E661F964E6612A65E6615665E6614667E6611012B09011
:2006BC000E720673057210123090A761F0CF3C67D4C103C0C0C354644078509150781092CC
:2006DC00607820927078309280784092907860923078909110824039F006011010311014C6
:2006FC0000924267E661BCA0E2A054A0F08050221546408000222B470D6240A02D828D313D
:20071C008D391082F1C0100409101A824A391A041082803910040E10AB10BC10C2106364AD
:20073C002972E0CF3C6713B003B0C86653B050B054B064B013B0A5661082E0223846AE66FD
:20075C000071418001222B47F08010224B46F022184764B03122384263B0CE661082E02256
:20077C0038467066386264B06F818F318F3DD0DFFF923C670071418001222B4764B0F080B1
:20079C005022654263B01182C1226046CE6605671182D12252467066526261817281813126
:2007BC00813D8231823DC0EFF19202933C670B62B081C091D381978290A2D3187F4EF30B3F
:2007DC001316E31CA44AC391E3813B149062BA1C8B46231E8B4AE31C8B4E90B207228B4221
:2007FC0090A21B1A9662E31CA44AC391E3813B18AB1CA04E9B1CA24ABC1CA442B21010821C
:20081C00D0229D42F0801022A4466364A566A462AB1094629B10946200703082F1C010044E
:20083C0063B00071A86ABC10E0B00070B281C291D281018212185181121841828131813D85
:20085C00121CBF4AE2B032B0B0DFF2923C67F1C72114C34E12C86291729131B0E1B000706B
:20087C0008C006C000C86091709100700182B081C091D0811018518110180614E1804282ED
:20089C008231823D201CE44AE2B02122E84632B00510A0DFF5923C672122E842E2A032B0EC
:2008BC0031824139F0C00104011EF642181610C01030081C04476010103C0610F1C7611437
:2008DC00FA4E16C8669171818131813D161C014B769131B006C008C0007061818131813DC7
:2008FC00408280390118F11C174B0114B080C0221747BCB033B090EFF1920F933C6700704E
:20091C0003A063B064B0EFB056650071408000222B4764B02A65EFA00071408000222B47DB
:20093C0064B003B03862018262818231823D80EFF19202933C6703A05665E661A2806364AA
:20095C00E66150B00071E661E092D08200223D47C0B20070A080F022594330B002C162312C
:20097C0001C0A080001E5243F0225343A0F56031603953632010101A136F236E11161216EE
:20099C00546B0070D5840000A5D30000F1F000000000000000000000B5FD0000219D0100E9
:2009BC00FD310100119701004F9E01004B9E01008531010000000000000000002928010062
:2009DC0071590100756A0100D5E60000639801001DF00000EDA200000E3FA70C18B80BDA48
:2009FC00500AD33809CD2C08CB2407C92006C71C05C61804C51803C41402421001C31000DD
:200A1C004100F6C0080E3FAB0C2BBC0BE5900AD85809D24008CE3207CB2A06C92405C82017
:200A3C0004441803C61C02C51801C41600C312F6C00405003F540100FD9A0100A1ED00004D
:200A5C00F19C01000F9E010075240100538301006F9D01007B9D0100759D0100050000008F
:160A7C008F9E010000000000B52B0100F40900000F210A00000F0F
:200A980000FD000000B5680100780A7F0000A0090000500070BD880034641D002000314E20
:200AB8008E01B008010102A1003FF108487BB8D90B003301B5BBAA2FCFCD057878BE787FD8
:200AD800D302949C0600C891C007FE920032000F0138C40D7A00F28193001400050101F964
:200AF800D600F1952B01F32201F30200AFC50D00909320409600C85202F0F901F000F111B9
:200B180000F302889FBA07FED1AF0E01940100CD43013700879ED4350208D4CFF201E720A1
:200B3800689D1310D9E6600300FA9803E785FF0538000004140020FAEB3183015019AD002E
:200B58000080DF020304401F01B3CC13CA01B38201BC030370A3E70810BAEF3084EF714E43
:200B78009055ED3207FE01FA21030F008000237F0798E008003FA7F1F15F9303008005F249
:200B980080040478EF8001886A03F5F40110FF580000FC0400C4227D64F24F22060880804F
:200BB8000700307D1A00700108C0801E0030EDFEF6DFB702FFFFFFE1B53D017F00496F01C6
:200BD80000D57C3ACF0DFEFFEF35E9930100FD89017F0095D00000E1C3FFEF00FF240500D3
:200BF8002087F90100C9DB0030043F07F70ABF54FFEF020D209705800E00300F007028BF2D
:200C18004A1C25ABDCF78A00B8FFEF36FE1FD2FFEF40FF0718000038403700FFA384060037
:200C38002040007FFF64404000030507B1FF230533058305480AFF0306B87A02009F84FF83
:200C5800020044C703040102FF638410004302B004FF0200DF7D83880300FF8460F135887A
:200C7800601A41FF8C602382A388FB005F43090000630030FF00004101A740A6F1A6D15126
:200C9800B2A4B001A490F3011BA4B0A57002002A00DD02F060180C0EFFE02600DD02A4D0A4
:200CB800440D0EF1901200F50252D0E0017002000C00F103A650A971A951D8A70100ED0542
:200CD8005700657F2FFF34581900C9200031F91904FFE5ADD0C8358E5A7307C20156F1FCF8
:200CF8001F09FD9F04C5DE579200003D987656005C471C00200175027D02F530001CFF6071
:200D1800005000A00040011F8002F004E01630435F18238F1CF940BD81817A01007C1A003E
:200D38000920003101BF029801B0003129EF2209A9D3244170F32AFF0F08C72F14301BAB3E
:200D58000020003138003440003448AA003450003458003460003431411E904772B1094DA0
:200D780002F1FFE19005F0AA0031980034A00034A80034B08A0034B80034305AEF11D631C1
:200D9800FFEF0A9CC701002000319AF19AA99354789C131EAF1DFFEEA18D01008A41C9FF19
:200DB800E190FFE1CC86109E018025268AB3B80600F3FFEF0CF000344C3F01C280C1C0FFA4
:200DD800640075353F0906E000D99B97010032001D92F0003008AA0034100034180034201C
:200DF800003428AA00343000343800344000344852003450003475927F40B418283B0041D5
:200E1800B1B1B3FFF0007D0000007A1D00206C00305970007000F1004B00700500927F20CB
:200E380001010000683B0174000044FFF000F30100000700B9901B0020EC01A80252741D54
:200E58000133340100052000313C0034FFF0009D0000016CDC02007200C084EF1A00200392
:200E780000C4C57D011F006D960100FFF000FD000004A8190020601BC700200101000031CA
:200E98000029041C0300200031FFF0007B0100000F00301B0020016100FFF000C93F01005E
:200EB800DF9A0100999B0100003D000000A8190020FFF0000000000002000000100000004C
:200ED80002000000100000000200000010000000020000001000000002000000ED230000B2
:200EF800000F08000000FFF00001000000FFF00001000004FFF00001000004FFF0000000FC
:200F1800980A0000200500201D0E000044010020450E000000010020660E0000A401002095
:200F3800850E000078010020A30E0000C8010020C00E0000E4010020D00E000030040020CE
:200F5800D80E000040040020E00E000000050020E80E000010050020F00E0000801D002036
:200F7800F80E000000020020000F0000EC010020070F0000F00100200E0F0000F8010020B8
:201000003C000000000000000000000034100000000000000000000001000000000000004F
:1C10200000000000000000000000000001000000000000000800000000000000AB
:20103C003400000000000000000000006810000000000000000000000100000000000000E7
:14105C00010000000000000000000000080000000000000077
:2010700030000000000000000000000098100000040000000000000001000000FFFFFFFF87
:10109000FF00000001000000080000000000000048
:2010A0002C0000000000000000000000C4100000040000000000000001000000FFFFFFFF2F
:0C10C000FFFFFFFF080000000000000020
:2010CC0038140000E410000095A1011091A70110A1C2011009B2011041B80110A5BC011078
:0810EC0085BC01102E0000007C
:2010F400280000000000000000000000141100000000000000000000FFFFFFFF0000000093
:081114000800000000000000CB
:20111C00341400003011000065C2011069C101101BC2011091BA011005BC0110E5BB0110EA
:04113C00300000007F
:20114000341400005411000071C20110A5B6011099BF011045B60110B5BA011025BC01104B
:04116000310000005A
:201164002400000000000000000000008011000000000000000000000000000008000000AE
:041184000000000067
:20118800240000000000000000000000A41100000000000000000000000000000800000066
:0411A8000000000043
:2011AC00240000000000000000000000C8110000000000000100000000000000080000001D
:0411CC00000000001F
:2011D00000000000001D0020040000000000000000000000200000007010000030000000EE
:2011F0001C110000081D00200400000000000000000000000C000000301300001800000002
:2012100040110000101D002004000000000000000000000024000000481300001800000085
:2012300000000000181D002004000000000000000000000010000000A01000002C00000059
:20125000CC100000201D002004000000000000000000000020000000641100002400000088
:20127000FFFFFFFF281D002004000000000000000000000028000000881100002400000014
:20129000FFFFFFFF301D0020040000000000000000000000580000003C10000034000000F9
:2012B000FFFFFFFF381D00200400000000000000000000001000000060130000180000000E
:2012D000FFFFFFFF401D00200400000000000000000000001C000000AC1100002400000084
:2012F000FFFFFFFF481D002004000000000000000000000038000000F410000028000000F5
:20131000FFFFFFFF501D002004000000000000000000000054000000001000003C00000090
:1813300018000000000000000000000040130000080000000000000032
:1813480018000000000000000000000058130000080000000000000002
:18136000180000000000000000000000701300000800000000000000D2
:08137800020000000CB10100AD
:041384000100000064
:0413880000000E0053
:04138C0000000F004E
:041390003200000027
:041394000100000054
:041398005C1C0020B9
:04139C00000200004B
:0413A000AB9D010000
:0413A400FDC901106E
:0413A8000000000041
:0413AC00000000003D
:0413B0000800000031
:0413B4000000220013
:0413B800681A00208F
:0413BC00010000002C
:0413C000741C002079
:0413C400080000001D
:0413C8000000000021
:0413CC00000000001D
:0413D0000000000019
:0413D400080000000D
:0413D8000000000011
:0413DC00000000000D
:0413E0000100000008
:0413E400601B00206A
:0413E80006000000FB
:0413EC0001000000FC
:0413F0005819002068
:0413F40000000000F5
:0413F80000000000F1
:0413FC0000020000EB
:0414000000000000E8
:021406002900BB
:021408000100E1
:02140A002500BB
:02140C003000AE
:02140E003100AB
:021410002E00AC
:021412000100D7
:0114140001D6
:0814180003000000C0B0010058
:081420000000000000000000C4
:0414280000000100BF
:04142C0000000300B9
:0414300083C4011060
:041434003C14000064
:041438003C14000060
:04143C0000000000AC
:041440009000000018
:041444009000000014
:0414480000000000A0
:04144C00741C0020EC
:04145000BD98010042
:041454002000000074
:0414580050B001008F
:04145C00ECAE0100F1
:0414600009C30110AB
:04146400B36C010064
:04146800637F01009D
:04146C0095C801100E
:0414700097C8011008
:041474000000000074
:0414780025B1010099
:04147C00C8AC0100F7
:04148000E0AC0100DB
:04148400B0AC010007
:0214880008005A
:02148A00090057
:02148C0001005D
:02148E0000005C
:01149000015A
:041494000000000054
:041498000000000050
:04149C00000000004C
:0414A0000000000048
:0414A400939E010012
:0414A800F1740100DA
:0414AC00958901001D
:0414B000D5780100EA
:0414B400D3790100E7
:0414B800356C01008E
:0414BC005939010099
:0414C000ED9A0100A0
:0414C4000D4F0100C7
:0414C8000DC801103A
:0414CC001DC8011026
:0414D0000800000010
:0414D40024000000F0
:0414D80018000000F8
:0414DC0028000000E4
:0414E00020000000E8
:0414E4003C000000C8
:0414E8000C000000F4
:0414EC0034000000C8
:2014F0007E482DE9F04F0C4601210170DFF8F491DFF8F481DFF8F4A1DFF8F4B178494FF04C
:20151000000C2027ADF1440D65461F4081F800C0C1490E9391F840600D9205EA020008BF0B
:2015300000287AD10D984FF0E047194662460F4002EA000008BF002843D10E9E0D9B4FF441
:201550008601B9F8B200DFF82CC3CDF82C9012EA060701EA030108BF002919D1C44912EA6F
:20157000060701EA030108BF00296FD0374643460D9E1C8103F138015881002F81E8C00084
:2015900004BF311CB1F1806F60D102285ED111E0374643460D9E1C8103F138015881002F9C
:2015B00081E8C00004BF311CB1F5803F4ED1B0F5505F4BD1186A674643693868214698472D
:2015D00042E04646B749B6F9087091F90000BC42A0F10100087017D1728906F1380003C8B7
:2015F000002904BFB0F5803FB2F5505F08D0002904BFB0F1806F022A02D012F0D9FF03E026
:2016100014F0F6FB17F060FF524692F90000401E10706FF00101318114E043466FF001006E
:2016300003F1080108806EB1BE480078832802D08120594608704646316919B160468847DE
:201650002146E8E7CDF82C90B9F8B2000D9A0E9E02212F461140374008BF002900F0E68364
:20167000B24A43F201418142109200F0B583C91C814200F0B1838B490A4691F90010474643
:20169000491E1170B7F908108C4205D043F60401814240F0B083ACE35F4890F840C007F1CD
:2016B000380090E800034FF482062F4617EA090706EA080008BF00281CD10B48383003C8BC
:2016D0004FF400322F4602400F4008BF002A02D112F06EFF8FE314F08BFB8CE3791D00202B
:2016F000C81C00209C130020F8170020CE1C0020684100205D46BCF1010F4FF081044FF0A2
:20171000000B03D0287808B118F0FAF82C70864C5846109E6778E0815946E770606931702E
:20173000027A417A0F9601F0070302EB0322490995B238BF2D1F09D304F114010A68157AED
:20175000517A01F0070105EB0125AD1E467A36F07F03774EADB240F02B83B5F57A7F00F3D4
:2017700027830A30294611F0DBF8216A04F118000522083117F0E4FE0520E17EA37E227F0B
:20179000E08103EB0120BF4BED1EADB26271224A597892F840300F9AA081C1F3011A002B87
:2017B0000A9208BFBAF1020F00F00283BAF1020F00F3FE8263B110F0070F00F0F98259491F
:2017D0000978862904D100F00701022940F0F082011301F0020102294EDAA378DFF844910D
:2017F00000F00700022835D1D6F80480002B31D1216A09A801220D3117F0A2FE0620E08168
:20181000C04780469E4DB26899F800002F680C9686281AD13FB901E05815002018F070F8AD
:2018300030462F6882689DF9240018F022FB9DF9246078775846B8774046FE779047A089F1
:2018500000F0100012F062F901E04046904717F0B1FCB0E299F800005A46862808BF0122CE
:201870000C965AB1584614F00FFBE77805E0C04600000C8CDC1A00200C96A378A7B19BB99E
:20189000012F00F09282A189022F03D111F0070F40F08B82032F08D101F00700032804D07F
:2018B00083E2C046CF1C0020A189080908D311F4405F00F07A82C6480778002F00F0758259
:2018D000081300F00200022802DA880A80F06D826C484078C0F381098611B9F1010F00F00A
:2018F0006482012E00F06182BA48BAF1020F09D010F80920805D8018C7B2FEB1C8091DD3CA
:20191000BF1E0CE000EB09028019127900798018C7B2C8090ED259EA06030FD0BF1CFFB2E2
:201930000CE0C0466C410020AC4000206A4100209816002059EA060308BF0227C1F3002023
:201950003A1AA0719542C0F23082ED1B4019090980B2608128BF4FF0250B5844743080B289
:2019700017F076FDA5782061002800F01E820021742211F089FB0020B4F80C8020711DB98C
:201990000A9908F0200008700A98A57903784FF0000B002B33D0002D31D1AB48008808F0AF
:2019B0000708B8F1030F1CD181085B4609D3344991F82E509DB90D681DB16D7E35F07F05A9
:2019D0000DD163B98008D84606D3A0498D6888780DB12846804710B9B8F1000F01D0042037
:2019F00020719B4890F8400010B1BAF1020F01DA16F014FFB4F80C80A57994F804B021690A
:201A100001F174004860886563890B816089A1F85C005FEA18100ED3C5F1030082B2A1F88D
:201A30005C20886D174917F08BFD21698A6DB1F85C00801888651348124B4078C0F30112F5
:201A50001878A1F80C80002D00F0780040EA02004BEA000008744FF0FF038B730CBF60796C
:201A7000002081F8306081F83A9081F84900E089002FA0EB050085B2E58100F08E8103E081
:201A90003C0F0020C6400020206A278129183A460831684617F054FDCE48EE19B5B2E58189
:201AB00026694078C0F301110A91317CBB466F46C0F38103C0F3810A002B01F0400847D01C
:201AD000C0F301100023022801D1C8090BD29DF801109DF8000000EB0120A6F844000DF13E
:201AF0000207A6F84200CC49B6F84400B1F85A10814203D04FF6FF71814223D1BAF1030F14
:201B100013D079783878C44A00EB012081B27186B2F85820BF1C01208A4212D0FFE74FF6F6
:201B3000FF728A4218BF181C0BE020693946323018F051F92069B84932304F3117F048FBF0
:201B500008370346002B00F02B8120462669C07EB4F80C9083111ED00A98022803D0307CDE
:201B7000C00903D309E058EA0A0206D179783878BF1C00EB0120A6F84200032B05D078784D
:201B9000397801EB0021318505E020693946283018F021F9266909F00709B9F1030F33D102
:201BB000B64807684FF00008FFB17B7E33F07F0317D096F8300002280ED0032811D107F161
:201BD0006C0006F1280117F003FB50B11CE0C046F00E0020CCB00100B7F86C00318D884223
:201BF00012D057F80C7C002FDFD1B8F1000F0BD1784F4046207178783B46C0F30111187805
:201C100000F0780008433074114890F8400010B10A9802283ADA0F98A3790778002F35D025
:201C3000002B33D165792779E9200DF1260114F045FC9DF82660924805235EB900F1080146
:201C500007220A70082209E09C170020D41C00205815002000F108010B7018224272881C47
:201C7000022200260270CE701FB1027842F0100202700D710B9AA2F87830C2F88410032183
:201C900010F04EFE2669B4F808B0E589B0890009C0F08380B06D69465A4617F051FC206949
:201CB000816D59448165276AB0F85C1001225944A0F85C10E9190DF12500083117F040FC99
:201CD0006E1CB5B2E58121699DF82500896D087022699DF825709DF82530906D401C9065FE
:201CF000B2F85C00401CA2F85C0007F0070082F82400C3F3C10182F82510608992F82470B2
:201D10008046002F4CD05F4F7F183E78361D8642268145DC206A29183246083105A817F094
:201D30000FFC3A789DF817C0111D481980B29DF81450E08105EB0C6023699DF8165000EB81
:201D500005409DF81550042900EB052098610BDD206906A9521E1C3017F0F2FB38782369F2
:201D70006844C07D83F82600986D05A9324617F0E7FB2069816D71188165B0F85C10A8EB28
:201D900006077118A0F85C10791E89B26181B0F85C2001818918A0F85C1000F031FD0AE092
:201DB00017F00AFF12F004FC05E017F021FD02E017F01EFD0C96DDF83080D8F80400804731
:201DD000216A0A680023137109682162D8F80810884710E0C640002040462C4F807841460E
:201DF000401C887097F900003946401E087012F0DFFB16F08DFF26480B99074F00226FF043
:201E1000010690F84000A1F8B2203E8130B11098007828B902E0C046F817002017F054FB6A
:201E30001C481C4990F90000401E0870174890F9000010B9144800210170164890F90000E4
:201E500088B10D9A0E9F02214FF0E0401140384008BF00290BD00F4890F90000002806DCE5
:201E700017F04EFD03E00020014606F01FF80A49002011B00870BDE8F08FC046600F002044
:201E9000001B0020B4B00100C61C0020CF1C002058150020CE1C0020791D00202DE9F04FE3
:201EB0000320ADF1940D15F0C5FE7D494FF00008022001F11C0242F80C8F401EC2F8088034
:201ED000F9D108460627403001467F1E21F80C8BFBD10821744E724C724F744B0180361DE0
:201EF0002246876026F003015D1A2562204691612746D16184691C371A460846A24200F2B0
:201F10006A84AA104FF6FC7900EB820209EA06054C4622F8048C5B1BE8220A8004EA0301AA
:201F3000EC39A0F8E8105E4900F1E80240460A611DF098F95A49CB4D0E4648613868D24C55
:201F50003061686804F10C06706029683160C6490822304616F0CEFC20B9C44801683160B9
:201F700040687060C248C349C0F89410C0F89C80C24DC0F8A050C0F8AC80BF4FC0F8B08002
:201F9000BF4CC0F89870BF4BC0F8A440D0F89410C0F8A83000F1940509B1404688471DF01E
:201FB000DDF9DFF8E8B241463C220BF1180011F06BF8022710240820ADF830003849ADF8ED
:201FD0003270496A0D940CA8884700280CBF0E9F4746334908200124ADF83C00496AADF849
:201FF0003E400FA88847A8499DF84000119C0A460870546087B1D021397087F80180B870E4
:2020100087F8038087F804803946C7F808800220C7F80C8014F0A0FEC949182001221DF05C
:20203000D7F8304617F054FC18201DF0BBFB96490F4648707868CBF808000FF0B7FA0BF1B6
:20205000540039468860BF4C2563DBF8086066614146F52017F024F9BB4D05F10C0005F160
:2020700018010FF045FEA86015F0F8FF0646D349A86817F06BFDD249642205F1280014F047
:2020900097F8D049502205F14C0014F091F8CE486860102E19D1206BB8B1C268AAB107E0E1
:2020B0009816002049F901006D410020004B0020FF204F468DF80800F81CADF80A0002AE12
:2020D000ADF80C0096E803009047C04D284617F04FFE4FF0004085F80080294612F070FDBE
:2020F00005F1080720213A46686017F005FDAFA0012115F07FFC012004F03AFEB44D05F104
:202110000C0005F128010FF0F3FD2860404617F035FD474605F11606824606F8028F022036
:202130007070384616F0EAF9014628685246C9B215F012F97F1C072FEFDBD54905F170002F
:202150004FF4FA7214F034F8D24905F19400642214F02EF8D04905F1B8004FF4967214F025
:2021700027F805F1400A504617F0C0FA4646012085F84800034685F840304FF47A77EE646B
:2021900051466F6414F04EFC4FF03331686017F070FD05F1580017F0A9FA012085F86000A2
:2021B000034685F858306E66EF650220514614F039FC6FF00041A86017F05BFD552040F2F9
:2021D0000D3117F061F8E020092117F069F8B34904F16000642213F0EBFFB149A0613A4680
:2021F00004F58A7013F0E4FFAE49E062642204F1840013F0DDFFAC49E0614FF4FA7204F105
:202210003C0013F0D5FF206101210BF1040016F0E3FEA64DBBF804004108C0F0EC809BF86F
:202230000170206B002F40F0E08041460028159140D00769002F3DD006208DF810000646BB
:20225000ADF8126015ABADF8148004AA009392E8030004234246B847D0B9159819301590CE
:20227000206B29E0C8FF0100ECB00100F012005020050020F5680100596E0100956E010094
:202290003173010075F700008C1C0020FC150020374640468DF81070236B169004AAADF895
:2022B00012605E69ADF8148092E8030016AB0422B047206B41461591002800F08B800769F6
:2022D000002F00F0878006208DF818000126ADF81A6018ABADF81C8006AA009392E80300FB
:2022F0000E234246B847002874D1159810F09AFC13F0CEFE071C29D0F80000EB071080B24F
:2023100016F048F82390002808BF474620D00646C14606F1040A4846314610F0C1FC308876
:2023300071887369524612F01DFC0AF1180A183609F101005FFA80F94F45ECDC08E0C04683
:202350003D6B0000CC0C00202017002040462390239E022017F060F9FFB2BDF860009DF89F
:202370006D30E883012B1CBF9DF86C00287702D119A817F0ADFABDF86210532016F084FF39
:202390009DF86D0011F05EF847B106F10C013046424611F015FF18367F1EF6D1239808B19F
:2023B00016F036FB01208BF800001EE04C6173657220536B656574202000C04699650100DC
:2023D000757C0100A57C010069950100301A00207C14002015988BF8008010F023FC0120D0
:2023F00017F01AF9012017F0E7F8BC48012116F03FFC58468088810807D30AF085F8B748C6
:20241000022116F035FC58468088C10858D3B44832220C3830F80C1F4FF6FF738B420BD072
:2024300041894B0808D301F44073B3F5407F03D14FF6FF4319404181521EEBD14FF44070F0
:202450004FF4807115F04CFE002833D1A44E32200C3E36F80C2F4FF6FF71914228D071894C
:202470004B0825D311F4407F22D102208DF88400ADF87C201FA80CF049F8D8B970894FF60B
:20249000FF5140F4807070810840708112E0C046B5080100998001009D870100A99101005E
:2024B000719101005591010043350100D0090020401ECED18948042116F0DAFB584680883C
:2024D000000926D38548082116F0D2FB0A208DF88600BBF85000014617F0C9FC8DF88700CA
:2024F000084617F060FC8DF888000DF1860012F0A9FCBD4817F03CFA012802D1BA4817F09C
:20251000B4FCE06942F2107117F00EFCB64817F0AAFCA988480805D3B448012116F0A8FB21
:2025300028468188880805D3B048022116F0A0FB2846818895F823000A0967D3AF68401E07
:202550005BD0401E57D0401E39D0401E58D1A5490DF16E000E220FF04BFA384650BBC5F8B9
:2025700008809F498DF87B800DF17A031820E1221CF02EFE50200DF16E0117F0A1F998490E
:202590000DF172031820E2221CF022FE1CA9532017F096F9E86820B1016811B10DF16E00CA
:2025B000884795F82200022814BF0320042017F033F825E0066816F02BFA3046CEE72A7FA5
:2025D000E88B02E0401C80B2E8833B4606E0997C8A4202D1D989884203D01B68002BF6D10E
:2025F00041468142EED0298C532016F04DFE404610F028FF04E0404600E0012011F014FE1F
:202610007A48082116F034FB28468188C8080AD34120414616F02CFE062016F0FDFF73486B
:20263000042116F025FBE0894008C0F08980E179E678080963D3A779237922783046401EAC
:202650002ED0401E15D0401E4CD0401E57D13846801E07D0401E03D0753806D1022002E07D
:20267000782000E00320A0710746677184F8048014E0002B43D16379002B40D060895B1ECD
:20269000032F00F101006081DEB2667112BF002E01202071042105200BF058FE404629E0E3
:2026B000012A09D0607838B1012020700121412016F0DEFD052006E084F800804120414641
:2026D00016F0D6FD062016F0A7FF494817F050F90128E3D1464817F0C8FBDFE7001600202D
:2026F000740A0020A4F80A80A4F80C8067710220E070012004F03CFB2046E678C1794809F9
:202710000BD3761CF6B2042ED2BFE6700120E070012004F02DFB2046C179A079490809D3E4
:20273000032801D1277907B9607184F80480012004F01EFB2F4884F80780012116F098FAF9
:20275000BBF8040000287FF465AD08200A272A49ADF820004FF0FF36ADF82270496A099677
:2027700008A8884700287FF455AD234908200727ADF84800496AADF84A7012A88847149E31
:2027900000289DF84E209DF84C0017967FF442AD1A49097891420ED118494978814207D0BC
:2027B000164989684B6C33B141463246984702E0304601F0C1FD179800283FF42BAD08202F
:2027D0000D49ADF8280003270B96496AADF82A700AA888471EE524F8028BFFF78FBBC04696
:2027F000CD640100A0AA0100500D0020D4090020BC0D0020DA0C0020981600208C1C00204D
:202810002DE9F04FB84C2069E189226A6589806DADF1440D0E46891808312A4616F090FED4
:20283000A81986B22069816D6D188565206A0122311808310DF13E0016F082FE761CB5B2BF
:202850000422206AE5812918083104A816F078FE9DF813109DF8100000EB016023699DF8E6
:2028700012102D1D00EB01409DF81110E58100EB0120049016F06CFFD863049816F00EFC9C
:20289000A3F84000EA2016F0E6FC0221B54822690170117C2079084310749DF93E0017F06F
:2028B000E8FA82F846009DF93E00118982F84800002082F8470002F174009065B2F85C00F3
:2028D000401A5168091851609089830A18D2030957D310F0070F07D000F00700032812BF5D
:2028F000081C5068401C48E05068C17801F00703491001F0380101EB43014018001D3CE038
:20291000171C02D116F0FCFF2269B889800A2ED379684878C6112AD13E89796600204D784B
:202930000B7805F07F056D0005EBE3157E2D0DD07F2D09D003F07F031818801C5B1880B243
:20295000991C8642EBDC08E0002100E00121801C87F8601080B2864201DA002005E07968D2
:20297000411879603989091A3981A7F86800506E10B1B2F86800B0B15068506190890009F2
:2029900016D292F86000002800F0FA80104612F09FFE2269D06C002800F0F280B2F8500083
:2029B000002840F0ED8017F0F5F80020206119E24FF0000B1546104605A9CDF814B007ABCE
:2029D000CDF818B095F82470CDF81CB006AA05F066F9002840F0C980059A6E6968682B8909
:2029F000311A581A1FFA80F80AB916F089FFB5F85C0000900196CDF808800698001D03905D
:202A10000598A969AB6D3A4615300BF01DF8002840F0AB80B64895F860302E89C15D701A0D
:202A3000288113B1284612F053FEAE8906F00706032E02D168680078E87395F80F907320B8
:202A500009A915F0CFFC832010A908F061FCDFF8A482DA4651460AE0C278012A03D1002F2D
:202A700008BFDC2027D0001D491C0990C9B29DF84000884278DD09988278032E07D00378E4
:202A9000B3420DD098F800300BB1022E08D0032EE9D10378032BE6D103465B784B45E2D126
:202AB000BB10B3EBA20F05DA02F0030207F003039A42D1DD50468146059895F80FC090F8B1
:202AD00014E0514601E0491CC9B28E4548DD07694B00032E03EB070208D1FB5C032BF2D19E
:202AF00052786245EFD10AE0AC4000201278B24205D098F80020002AE5D0022EE3D106983B
:202B1000077D002F08BFB9F1DC0F2DD0A869B0F1FF3F23D0712008A915F064FC5346089AD4
:202B3000A9690598824206D106989A4600EB8A00C068884210D85B1C2C32022BF1DB069802
:202B5000491CB1F1FF3F00EB8A00C16002D1079801218170584608E0DB2007E0DB2004E0BE
:202B7000DC2002E068410020DD206870226950709069577850651FB1F22016F06CFB226927
:202B90009B4DDFF8749295F84000002800F09F809189984EDFF864B201F00703022B5BD11B
:202BB000A778002F58D15778002F55D121694FF000080DF136008DF83F80283117F00BF9BD
:202BD00021690BA80A22283116F0BAFC06F11001276908886B6E401C0880786E0DF13F025D
:202BF0000421984704F1100A30B94846006818B19DF83F1080F86810276997F830000228BD
:202C10000FD1DAF80000594602222031283015F071FE30B90BF116010DF1360017F0DBF808
:202C3000276977480078862807D1708A401C7082B88900F0100010F069FF95F8400020B1A8
:202C5000D5F8881009B12069884716F0A3FF4046206116F0AFFAC7E06A4B1F7877B3C1F3BE
:202C7000013102292AD15078002840F0BB809DF83E002070B18A277902F128031C32002FB8
:202C900001F10100B0820CBF002008205E4E002131605F46009007F1260001920688197A87
:202CB0001A460D20334604F0D9FD10B915F0B6FD01E016F00FFA0F482269007838B1D5F8B3
:202CD000881021B1104688470A482269007897890A9207F0070788B1907BFF287CD0032F56
:202CF0000AD1104640680078042807DD74E0C046B8B0010098150020012F6DD1381C3CD005
:202D1000401E53D0801E67D19089C0F30130022803D15068007807282DD0108900285BD009
:202D3000104641684A1C42600F788446C7739CF824607EB9002F4FD00A2F4DDA0189334EE9
:202D5000F01910F8010C884209D0082F44D1082905D041E0C07B00283ED00A283CDA6046D0
:202D70000189491E0181C17B0B3101700A99C87B401CC8731CE0322019E0254E96F8C10061
:202D90000F280DD016F00CFD50B90A988189091301F00201022903DA4D4608352968884703
:202DB00096F8F7000A9A1074152000E0162010700A994D4605F1280014F050FD154E7068AB
:202DD000804795F83010491C85F83010B1688847202016F005FE02E00AA813F0E3FE4FF045
:202DF000000834E711F0E4FB11B0BDE8F08FC04658150020C01B00203C0F0020B80E0020FC
:202E10006C4100206A410020041B0020F8AB0100040E0020981600202DE9FE4FE5498046D0
:202E30000122A1F130000260DF480768002FFCD0DE4ADF4EC027E048E04B17603268920870
:202E500008D2324652F8042C03F14104120C42F0F00222704FF0000A8346C1F800A0DFF847
:202E700064C3DBF80810D64D0191880E43D2480E41D3802018744FF6D802A3F85120187087
:202E90002868C0F30464162CA8BF203C1F460F3F387800F01F001628A8BF2038844223D04A
:202EB000624602F1980EDA4ACEF800A0261A022E05DC16F1020FB8BF6FF0010600E00226E9
:202ED0003018166800F01F06844246F4F856A7F866604FF001061660E8D110683746176073
:202EF0001068CEF80060106828460068C0F30420162808DB06E0A5F1D0000068C0F3046013
:202F1000162800DB203800EB2170401C162805DA10F10A0FB8BF6FF0090000E01520DE4F00
:202F300000F01F0040F4F850A3F85900386880083ABFEA48C0F800A041F04061019E62463E
:202F5000A5F13804C80E8F0E80F0010000F00100106087F0010000F0010090602068C0F3B6
:202F70008367C0F38F21B00C23D2304640F3072000280BD542425046490805D17F0806BFDE
:202F90000127391C4FF6FF71521EF5D1002810DD4FF6FF72490041F001018A4207D27F004E
:202FB00047F001070F2F92BF01210F27111C401EF0D141EA0741182014F032FB2068D24E0B
:202FD0002768C94CA6F10409C0F3870107F0030041EA0021D9F8040040F2FF3253468FB206
:202FF0002C21466800972746A7F14000B0470C3D2868C0F30D011C2014F012FBB84955F8BE
:20301000080C014000F07C400143142014F008FB55F80C1C01F47C000904090C01431020A4
:2030300014F0FEFA624955F8042C0968C2F30350C2F30345490813D2DBF800100B0510EBC2
:20305000237003D41028A8BF0F2000E05046090415EB217503D4102DA8BF0F2500E05546E5
:2030700045EA001502F47F4002F0FF01B8F1220F40EA054041EA000124BF02F080421143F5
:203090000C2014F0CDFA974DB8F1220F32BF01202868C0F30070B8F1220F4FEA400040F023
:2030B000200084F8090126BF2868C0F3407001208E4EB8F1200F40F0100084F8090138BFF0
:2030D000514606D33168C80C00F44070C1F384510143282014F0A4FAB8F1200F26BF306853
:2030F000C0F301505046B8F1220F4FEA400040F0600084F80C0126BF2868C0F3C0605046DC
:20311000B8F1220F4FEAC00040F0800084F8010126BF2868C0F345505046B8F1200F4FEA3A
:20313000800040F47C40A4F89C0138BF70490AD3306801038A15920501F47C1100F00F00F6
:20315000114341EA0031082014F06AFA4FF48000A5F1D0012060674A886D40F21E236FF3FA
:203170001F40834216D90868030E13F00F0F03F00F01C0F3034018BF491E072805D0062821
:203190000EBF0720801C00F00F0041EA0011A2F108000170DDF804C0CCF381477F1E13D0A8
:2031B0007F1E3BD036E0C0469402224300600C40B03F005040100940AC3F005015620840C2
:2031D000881300500000204328460068810C21D24FF480412160D2F80210430AC0F30337A0
:2031F00003F0800321F08F010B4347EA0301C2F80210D2F80130060A66F30303C2F8013004
:20321000116800F0E70721F0E70147EA010004E02C2009404FF00040224610603B48006861
:20323000C0F3C0070FB94020A0624FF40070206428684027C0F3C14040F0300084F8C80054
:20325000CCF3815050B3401E03D0401E1FD002211EE0012014F094FE06460420314611F08D
:20327000D1FA042014F08CFE8642FAD12248066826F07F4014F0C6FCD9F814000368072143
:203290004FF06022300E98474FF4806020600321042011F0B7FA08E000000940042001212C
:2032B00011F0B0FA154814F0ADFC203D2868144947F6180600F03F0084F8CB0F144B0E8032
:2032D000D9F800201868D1680220884711480D4D076001212960BDE8FE8FC04694042A4341
:2032F000FCFCFC008C13005040A00C409813005000803F400A600840A83F0050BD37860052
:2033100070B00C4094046042A4010010B03F00502C20094000600C402DE9F04F0C46C74F05
:2033300001687962416880687960ADF14C0DB860204614F065F84FF008084FF0010A06A8B2
:20335000ADF81880796AADF81AA08847C04E9DF81C1071700899716108B115F0DBFD2068CE
:2033700080477868804712904FF40055ADF80080796A01951E20ADF802006846884713F092
:203390007BFFB44C2068406880472068C16810A888472068836810AA002001469847606041
:2033B00008B915F0B7FD15F087FFAD4DAB49AF4A0D60AC4CCA60AC4B4C60A7488B604FF0C6
:2033D000020B3061AA4DAB4A0D61AC4C4A61AA4BA16403F11805AA4A2564A5F11400626549
:2033F000A8496064A94D216202F11800A4F80CB0A749A065A44AE9601038A262A649E06580
:20341000A44A6961A6482A61A6490160A34AAA612066A54A4260AA49A960A44A8260A44A52
:20343000C260A44A8261A44A8262A44A826312F02BFFA549A34A1160A089626540F010003C
:20345000A081A3496960A1485060A248206312F01BFFA24A9A64A249D964A24A1A65A249FC
:2034700059659D4D5D64A14A9A65A149D965A14AA1491A66A089596640F00800A081002506
:2034900083F84050B5609D4A9A669D49D9669D4A1A679D4959679D4A9A679D49D9679D4AED
:2034B000C3F880209C49C3F884109C4AC3F888209B49C3F88C109B4AC3F890209A49C3F8FB
:2034D00094109A4AC3F898209949C3F89C10994AC3F8A02098490D60984B83F800A0584650
:2034F0005D8015F097F8FF21F0625A4616F0C5FCF01CFF215A4616F0C0FC584615F08AF8BF
:20351000DFF83C92C9F8000008B915F003FD4846006829465A4616F0B0FC11A80FA913F044
:20353000C7FEF06A9DF84410421C01709DF84400107025709DF84400B07015F0C9FAB061E4
:20355000796AADF808801420ADF80A0002A888471524ADF810800398ADF81240796AF061BB
:2035700004A88847784B1D70764C6570A57005982561801E3062754A157040F2F63015F0D0
:2035900067FF0646666116B916F0BAF966699DF8290009964FF47A798DF8285009A9424681
:2035B00000F0F0008DF829006069ADF82A9015F0C7FF266265626648A0F8009013F04AF810
:2035D000644C2078012803D02846014604F06EFC61480570614E35702078012803D0284610
:2035F000014604F063FCB9681298884701F05CF815F05EFF5A48007813F052FD504629466F
:2036100004F054FC13F0AEFA564805702078012803D02846014604F049FC10F0FBFF1820E4
:20363000ADF83080504EADF83200504D0D96796A0E950CA8884728B102E0C04698160020D8
:2036500016F05EF902F028FC13B0BDE8F08FC046A01A0020444100200F600100EC3E0020C1
:203670000599000095490100798E010095E10000A1FA0000DD33010058150020901700203F
:20369000C43F00208CA60100750B01003C0F00203D3A0100B15A0100E79C0100A199010095
:2036B000684000204DC6000069B00000115A010049740100F5490100352B0100D59D0100C9
:2036D0000D9200002440002041F80000B1C80000C5B90000A18C0100391B0100D1860000AD
:2036F0004535010051720100D182000073010100E15B000081370000CD220100818E0000C0
:2037100005DE0000AD96010089AD0000855C01003187010075EE000011BB00009966000073
:20373000D18E010069090100D15801000D87010045640100418A010040410020F4170020A5
:203750005C410020AC400020684100206A41002064140020791D00206C410020644100201C
:20377000FB0E0020694100200B310100581C00202DE9F04FADF18C0D1C911E93CC491D92C7
:203790000A6806460DF156000260496841603046694613F0C1FE00281F9004BF0020229000
:2037B00000F0F78102200027B61CDFF84CB32090D34D2297304602A912F031F85FEA000979
:2037D00000F0E48122990EA816220FF05DFC9DF809707F1E00F082807F1E40F0CF81B9F11F
:2037F0000A0F40F3D681B61C316804A80160361D318805AF42F20B0039800DF1160112F0CF
:2038100039FABDF81600BDF81410884200F3C181B61C16F8010B16F8017B16F8014B8DF86D
:20383000380016F8011B8DF839700EAA8DF83A40304606F03DF9BF4909780028064400F0A4
:20385000A8811F9C012904F1020400F091814FF400500DF14E0112F00DFA0DF14E000DF11A
:203870005601082215F046F840B11C990DF14E00082215F03FF8002840F07A8142F2010094
:2038900004A907F079FA42F20B0005A907F074FA42F205000EA907F06FFA0DF1390142F2F3
:2038B000060007F069FA0DF13A0142F2070007F063FA0DF13B0142F2090007F05DFA9DF876
:2038D0003B0028B1022840F0538142F2030001E042F20D000FA907F04FFA49E1B9F1040F5E
:2038F00040F35781B61C16F8010B16F8017B16F8014B8DF8380016F8011B8DF839700EAA10
:203910008DF83A40304606F0D3F80028064400F040811C9806A906F077FA9DF83600002881
:2039300040F00A819DF83B0000287AD195F83170002F00F0FD8095F83300874207D095F8C2
:203950008C000A2801D10BF007F8A86B1EE0AF6B4FF400500DF15E0112F08CF915F0F8F836
:203970004FF0FF08229C2190A24695F83100A04240DCA86BB8F1FF0F08D008EB88040019A4
:20399000007914F07FF8A86B071923D195F831300746002B08BF229C19D05846229C406824
:2039B0001946D8467F1F7F1DFA782AB1491E04F10104F8D17F1D0AE0804795F83310491C47
:2039D00085F83310D8F80810884795F83130A34200F094801C980DF0C1FA38710120F870EB
:2039F000FC788DF8364038798DF83700229B8DF82330A1E0387912F03FFD014608220DF167
:203A10005E0014F077FF40B138880104219816F0FAF982453CBF8246A046641C7F1DA4B274
:203A3000A3E795F83070002F00F0828095F83200874207D095F88C000A2801D10AF08CFF9D
:203A5000686B1EE06F6B4FF400500DF1660112F011F915F07DF84FF0FF08229C2190A24690
:203A700095F83000A0424DDC686BB8F1FF0F08D04FEA48140019C07F14F004F8686B07192C
:203A900025D195F830300746002B08BF229C1CD0DBF80400229C1946D846203F2037BA7F49
:203AB00042B1491E04F10104F8D120370DE0C046DCB00100804795F83210491C85F8321048
:203AD000D8F80810884795F83030A34216D02299384620220FF0D8FA1C980DF03FFAF877C2
:203AF0000123FF2039462022BB770446787206A8FC720DF07DFF1FE098160020612055E034
:203B100094120020F87F12F0B7FC014608220DF1660014F0EFFE38B17968219816F073F9E8
:203B300082453CBF8246A046641C2037A4B297E764203BE0581500209DF836000EA9162274
:203B500040F004008DF8360008A80DF051FF1F9C9DF83B00A41C40B19DF84D700FA83946A5
:203B700011F055FA3F1A8DF8357006A810F090FB20984844801C80B2209003E01F9C4E4437
:203B9000B61CA41C209884423FF714AE2098022803DC229A6720114604E01F9A911C121A3C
:203BB0002298921C1D9B19801E990A8023B0BDE8F08F70472DE9F041B44C0F460646F80B62
:203BD00080F0B481A07AB90F80F04681B80880F03781F80A80F01081E07939096DD2B80B8F
:203BF00059D2780B0FD2380CC0F0C581206C806840880028FAD0206C806840880128F5D094
:203C100027F4004743E013F0A7FD38B1B56930466FF4807100224FF00073A847D24904F1C4
:203C30007000002216F0FBF8B16800254FF0010840F602022572088884F8038082420AD065
:203C5000B0F5C15F07D00A8B4FF61F60104040F43470088306E00A8A4FF61F60104040F4EA
:203C7000347008827574266E15F02CFDD4F85411E26804F5AA73914208BFA84626B1801BD0
:203C900003EB8806010BB160256627F48057192016F0C3F86FE104F1440016F0CCF8061C8F
:203CB00008D0706830B17568F068B6F92C1000222023A84727F400575DE1012800F097800F
:203CD000206C002840F0958000254FF00108E570AD4884F8058015F015FF284614F078FF21
:203CF000AA4904F170002A4616F099F8A66D15F0E9FCA178801B000B012906D1667826B9DB
:203D100094F86810B0EBC12F39D9A14E84F80280A6F1150109686570090A30D3606640F600
:203D30000900A08294F8210000F0F00040F0010084F8210094F8200000F0F00084F82000C5
:203D5000A56116F066F806F6FF7211686FF0020321F00201116004F11401C6F8FB3F8D4A41
:203D7000C6F8EB1F11688908FCD3C6F8FB3FD6F8FF1F41F00201C6F8FF1F16F041F92E46EA
:203D900004F1580080E86000666613F03FF8207818B9E068403016F056F87F480660022034
:203DB00013F0A6FC11200CF099FAE068007C10B90E200CF093FA607A18B16572052013F0A8
:203DD00097FC764965710878A57128B10D7004F1EC00042116F03FF8B4F95000B4F9521070
:203DF000884214BF022007200DF07CFC01E00020E07127F00807BEE016F00BF8054604F1F9
:203E10003C0016F018F8061C15D0E06810B1783015F0F3FFF068E060284616F0F1F815F097
:203E300051FC20665E4815F06DFE4FF4006104F1EC0016F010F8002027F48067E0719AE009
:203E500007F068FC04F14C0015F0F5FF27F0020708B147F002078EE020B1042013F048FCFA
:203E70000020A07215F0D5FFB1688046088840F6020282420CD0B0F5C15F09D00A8B4FF666
:203E90001F60104040F43470088308E0B83200200A8A4FF61F60104040F43470088204F1EF
:203EB000580090E80C00002B08BF002A1AD0042014F066F8B0B1A56D15F004FCF168401B5E
:203ED000728AF060000BF06080188842F06002D209184808F06040F6C41181422CBFB0F586
:203EF000FA7FF160404616F08BF813F035FC98B1B56930466FF4807100224FF00073A847B1
:203F100004F13C0015F097FF002808BF47F0020702D0192015F081FF7569002130464FF052
:203F300080630A46A84727F0005724E015F071FF014604F1440015F07EFF061C16D0356ABF
:203F5000A80813D225EA05003062084616F058F8706870B16DB12A46F068B6F92C107568CB
:203F70000023A84705E0C0466DC10000084616F047F827F4804727B104F1EC00394615F054
:203F90006AFFBDE8F081C046A5D10000B52A01001500044010100440000004606141002053
:203FB00059BC00002DE9F04F064692F808B0307D09AF8846ADF1240D04933528039208D096
:203FD00011464D6806F16C0045600C8904810A680260DFF8C8C238F07F0506BF60460088CF
:203FF0004FF6FF700590F08A800934BF002008203076F08AC00834BF102080207076F08A1F
:20401000400903D260460E30007800E00020B076F08A41082CBF20240024000928BF44F0B6
:2040300010047568002108F07F08307D06916D1E02280EDB0C2808DC0C2803D1022044F483
:204050000854069044F0030404E00D280CBF02200120044396F8880008B144F0080421097C
:2040700000D328B1DFF8C09299F8EC3013B908B1DF204DE121096DD396F88950DFF8ACA206
:2040900006F1240133891AF8052007910AEB0001097908908918491DC9B2C918B1F57A7F57
:2040B00000F3388100284CD0049A039906F180000BF024FC0799002808603FD0806AB0F16A
:2040D000FF3F39D070680023401E8DB196F88A10524600F80119515D491EC9B241B1721814
:2040F00092F87F20491EC9B2002900F80129F6D1079970660968896AB162090E00F801197D
:2041100096F82A1000F8011996F82910089A00F8011996F8281005F0030500F8011902F073
:20413000070141EAC501017071683289091AC9B270608918318105E0DB2700E0F3277770E8
:20415000E9E00023F08A7370C00828BF44F0100475686D1E336DA3B9B36D93B999F8051198
:20417000012903D13089B0F5EE7F06DA200904D202290AD144F4005401E044F480540120E7
:2041900002E044F4085402200690DFF8A4A19AF8000001280CD09AF8400048B196F86B006A
:2041B000042805D1022024F48054069044F4005444EA8834B8F1020FA4B20AD0B8F1030F2E
:2041D00010D1ED1F09F1F801284615F004FE6D1E08E0B9F8DE00001205F8010999F8DE00F0
:2041F00005F80109069802280CD0B8F1000F15D0BBF1000F0CD004990598814208D144F0C6
:2042100040040BE0BBF1000F08D1B8F1000F05D00599081205F8010905F8011944EA8B248B
:20423000BBF1020FA4B209D0BBF1030F0ED10399ED1F284615F0CFFD6D1E07E00399088860
:20425000001205F80109087805F80109BBF1000F05D00498011205F8011905F801093878A1
:20427000F0B934480178307D0D2814D068B9306D28B999F8C800411C89F8C8100AE099F8A1
:20429000ED00411C89F8ED1004E099F8D600411C89F8D610014605F8011903E0DE0E0020EA
:2042B00044F48074201205F801092C7070683189401B7560C0B240183081200927D3B06D70
:2042D00000B130629AF8400010B1307D0D281ED1726A12F1150002D115F012FB726A916A77
:2042F000481C9062306A3289B162471B0092D21B019090B20290706A96F888202B461530E4
:2043100008F0AAFD00281CBF7070071C07D10020707005E0E5277770F32014F09CFFF8B2DC
:2043300009B0BDE8F08FC046040E0020B4B0010058150020B1400020B0B50446BC48076833
:20435000ADF1480D002F00F0AC812078401E112800F2A781DFE810F06E0156013C012701D3
:204370001F010801F100E300C300B2008D005D0053004200A5012A001C001200F86B0028B3
:2043900000F08F81684621460DF0DFFFF96B86E1386C002800F085816846002101220EF0A0
:2043B00073FE60788DF80000396C78E1F86A002800F07781684600210E220EF065FEA11C92
:2043D000684615F021F8A57BA1890022ADF80A1005B101228DF80C20F96A61E1B86B00285C
:2043F00000F05F816846002102220EF04DFEA5788DF8015060788DF80000B96B4FE1786B1A
:20441000002800F04E81684621460DF09EFF796B45E1386B08B36846002114220EF034FE59
:20443000A5788DF80150A3680193A289ADF80820A17B8DF80A1060788DF80000E57B8DF8E5
:204450000B50237C8DF80C3094F911208DF80D2061690491396B684688476068002800F0C1
:2044700020810146F22008700020487012F074FC17E1B86A002800F0148168460021242294
:204490000EF002FE6078A11C8DF800000DF1020014F0BAFF04F10C0103A814F0B5FF257E2F
:2044B000E08A04F119018DF818500B22ADF816000DF119000DF09CFAB96AF0E0786A0028F7
:2044D00000F0EF806846002102220EF0DDFDA5788DF8015060788DF80000796ADFE0386A0E
:2044F000002800F0DE806846002112220EF0CCFD658862796078ADF8025023798DF805208F
:20451000E11D8DF80000A5798DF804300B220DF107008DF806500DF06BFA396ABFE0F8691F
:20453000002800F0BE806846002101220EF0ACFD60788DF80000F969B1E0B86910B12046E4
:2045500011F0F0F8A07D002800F0AB80A07820B9A069002800F0A58003E0A069002800F0C7
:20457000A08014F0A5FA9CE07869002800F099806846002113220EF087FD6D46A01C01687C
:20459000406829600B22686004F10A0102A80DF02FFA796983E03869002800F082802046AF
:2045B0000CF036FB7DE0F86800287AD0684600210E220EF069FD6078A11C8DF800000DF114
:2045D000020014F021FFA089ADF80C00F96866E0B868002865D06846002114220EF054FD53
:2045F000A01C01686D46296040686860A07A0B2204F10B018DF808000DF109000DF0F8F910
:20461000B9684CE0786800284BD06846002110220EF03AFD60786588211D8DF800000B222F
:20463000ADF8025001A80DF0E3F9796837E0C046941C00203868A0B36846002119220EF028
:2046500023FDA01C01686D46296040686860A07A410824BF01218DF80810810824BF0121C6
:204670008DF80910C10824BF01218DF80A10010924BF01218DF80B10C10924BF01218DF81C
:204690000C1030F07F001CBF01208DF80D000B220DF10E0004F10B010DF0AAF93968684698
:2046B000884712B0B0BD70472DE9F04FC34F4FF00008ADF1140DCA4CF868CDF808800028DD
:2046D0008DF80C8035D1BE48BE490068814213D0BD49814210D0BD4981420DD0BC49814281
:2046F0000AD0BC49814207D0BB49814204D0BB49814201D015F004F913F06CFA012814BF97
:2047100040460120F87013F043FD206A00F1200120B915F0F5F82046016A2031096807F145
:20473000140088474FF4FA70F884AE4EBE620625FD62E36993F82660DEB9AB4893F82560C0
:204750000278964215D041468801A0EBC100181890F8266036B990F82550491CAA42C9B2C0
:20477000F2D103E090F82510914202D112F048FEE3699E49606A65C881E86500F878012847
:2047900014BF40460520DFF868B29A4D08709BF8356126B998690068C5F8A40005E0D86943
:2047B0000068C5F8A40014F087FC632004A911F085FE9BF8070112F007FEB5F896C09BF8AD
:2047D000072105F1880682462CF0070C812A4CF0010CA5F896C003DB842A0EDB862A0ADB35
:2047F000306940F00F0030619AF80E10052914BF2421292106E0292100E02121306940F0E5
:204810000F00306185F89C10717D812A01F03F01717501DB842A19DB9AF80A306BB99DF80C
:2048300010203F3262F305017175F28A4FF6C07303EA020141F0180113E09DF8102001F0AF
:20485000C00102F03F020A43114603E021F03F0141F002017175F28A4FF6E071114041F0CE
:204870002001F182BAF80C209AF80E100A230CF0010C491D514391FBF3F1C9044CEA114111
:20489000F181BAF80C101923890391FBF3F161F31C20E3693061308B93F8242062F3020042
:2048B000308393F824104FF6F77909EA000001F0080101439BF9F600318310F033F809F12D
:2048D0000801814218BFA5F8A200DAF80410DAF80030BAF80800E269401E414303EB5100D8
:2048F0004FF47A71B0FBF1F0A5F8A800106A0078A5F88A8085F8AC00C5F88C80707B00F043
:20491000F00040F00100707315F04AF9C8B9BAF80C00394AB1FBF0F0C0B21070B1FBF0F06F
:2049300078709BF80701022806D0842809DB862807DA05215C2001E00221A8202F4A51701D
:204950001070F868256ADFF8BC9018B3404611F0E3FC38799BF80711884211D179799BF8F7
:204970003521256AF86891420CD1022142468DE806002D6D4346314602AAA847E66013E09E
:20499000256AF868696888470120236A1C491D68087000E02D68154907F114034846324680
:2049B000A847F860606AA0629BF807019BF83561387105B07E71BDE8F08FC046D01A00208F
:2049D0009412005000F0022000F0012000F00020008002200080012000F082000080002049
:2049F000F8170020E58701000B0F002024410020040E00209C130020441C0020C01B0020D0
:204A1000781D0020A03A00202DE9F04F09AFADF13C0D08900A92388809911E46ADF8180034
:204A3000101C08BF002000F08481002700F101094FF0FF3A4FF0010BB8466CE1252940F0B0
:204A500063811078521C0A922D2818BFADF8068005D15846551CADF8060010780A9530286A
:204A70001CBF4246434605D10A9908785A465B46491C0A912A28CDF80080554616D130684F
:204A900004930A99CDF808A0C01C4B1C20F00300001D306050F8044C0A93002C08780094E7
:204AB00018D5ADF806B06442009413E044460AE0610001EBC40140180A99A0F130040878AB
:204AD0000094491C0A91302801DB3A28F0DBCDF808A004932E282BD10A9908782A2801F114
:204AF00001010A9111D13068CDF80880C01C20F00300001D306050F8045C002D48BF45463F
:204B100008782B46491C0A9111E0454643460AE0690001EBC50140180A99A0F13005087849
:204B30002B46491C0A91302801DB3A28F0DB02930AB1224604926C2804D04C2818BFADF8ED
:204B5000048005D10A990878ADF804B0491C0A910BA9CDF80C800FAB07916428059300F004
:204B70008B80692800F08880BDF818C0752872D078286ED06F286AD0702850D063283DD026
:204B900073281ED009980A990128A1F101010A9115D96B490C68B5F1FF3F03D0A84288BFE2
:204BB0006D1C00D8099D029508A80AA932466B46A047C7190A99039801F1010974E04046E0
:204BD0002AE030680A99C01C20F00300001D306050F8040CBCF1000F01F10109014608B9CC
:204BF00055A00146079114F0F9FD0390B5F1FF3F5BD0A842C4BF281C039056E03068C01C47
:204C100020F00300001D306010F8040C5D468DF82C000A990395584601F1010945E0082036
:204C300035680490E81C20F00300001D306050F8041C082210230FA80FF010F8401E0790F7
:204C5000402101700A99079801F1010929E0082302E0102300E00A230A99306801F10109A7
:204C7000C01C20F00300001D306050F8041CAA42BCBF2A1C049210E00A99306801F10109B6
:204C9000C01C20F00300001D306050F8041CAA42BCBF2A1C04926FF009030FA80EF0DEFFC0
:204CB0000790059D281A0390009C241ABDF8065000945DB906E008A8202109AA13F02CFB93
:204CD000009C7F1C641E0094F5D503980546401E039075B9BDF80600E8B10098401E0090CE
:204CF00019D408A8202109AA13F016FB00987F1CF4E70798411C0791017809AA08A813F07E
:204D10000BFB03987F1CE1E708A809AA13F004FB7F1C09F101094A460A9812F8011C401CC6
:204D300000290A907FF48AAE089808B14146017038460FB0BDE8F08F286E756C6C2900C077
:204D500048B10100BA482DE9F84F0025B94CB749056094F8E200002800F06381012800F0D8
:204D70002F81B54E02283CD0032840F05A8151F8250CD4F8B8100029A0F5C060C4F8D40088
:204D9000B8BF49420028B8BF4042814226DA4FF08057D7F8A4014568B4F8BC0030214FF4EA
:204DB0007F42082300903046A847D7F8A4014568B4F8C00004214FF4F802122300903046D8
:204DD000A847D7F8A401B4F8D070456820214FF440620A2330460097A847012584F8D850AE
:204DF0001AE151F8258C14F09FFE2F4600B901273946924F38680028FCD0B146012609F1AB
:204E10000409D9F82CA03E6009B114F093FECAF30720C4F8BC0014F087FEAA4600B9B24665
:204E30003B68002BFCD0D9F800B0BAF1000F3E6001D014F07FFECBF38440C4F8C00014F09B
:204E500073FEAA4600B9B2463B68002BFCD0D9F81C90BAF1000F3E6001D014F06BFEC9F3C7
:204E70008120C4F8D000B8F5C061C4F8B81000F09C8094F8D80068B9C4F8D410D4F8C000E6
:204E9000C4F8C800D4F8BC70C4F8C470D4F8D030C4F8CC30D4F8D410D4F8BC30002954BF6E
:204EB00002206FF0010004F1C802176801EB41014018411000EB917107EBA1001060D4F88F
:204ED000C810C4F8C43000291CDD1E293CDDD4F8CC0030B93429B4BF15391E21C4F8C81046
:204EF00025E02A29BABFD4F8C8000B381E20C4F8C800D4F8C4003F28B4BF401C3F20C4F857
:204F1000C4001FE0D4F8CC00032812D011F10B0FC6BFD4F8C8000B30301CC4F8C800D4F80D
:204F3000C4000028C4BF401E051CC4F8C450032508E011F1150FC6BFD4F8C8001530301CC3
:204F5000C4F8C800C4F8CC504FF08057D7F8A401B4F8C43030214FF47F42456836480093A8
:204F70000823A847D7F8A40104214FF400321123456831480096A847B4F8C860D7F8A401D2
:204F900004214FF4F802122345682B480096A847D7F8A40120214FF440620A23B4F8CC6026
:204FB000456825480096A84701E084F8D85040F2FF50404502D8801C40452DD208202EE087
:204FD00051F8251C1E4F4BF2F5204843060A3868C0F3814001280AD113F018FA11F0F8FEB9
:204FF00014F0AEFD3111C010484306EBE03694F8E50030B91348006820F07F40801946087B
:2050100001E084F8E5501048310C0660012741600E4D8760287808B90B2000E0052084F8DB
:20503000E40005F025FABDE8F88FC0462D400C402C500C408011002000A00C4000800C404C
:20505000B43F0050102009403C600C40F1AF01002DE9F04FD0F804A0ADF1140D0290806801
:205070008B460390DBF80000002800F0588114F0D0FEDAF8881029B114F0C2FF03208BF877
:2050900010004CE101218BF81010CAF888B014F0B7FF9AF8A40038B19AF88D20A249DAF82F
:2050B0009C00114312F00AFBDBF8047014F0B1FE04469AF8D80078B917F0704F06D12FB18D
:2050D000042012F0B7FD062012F0B4FD022012F0B1FD01208AF8D800204614F091FF03982B
:2050F000D0F80080D8F8040040F00200C8F804009AF80070002F019778D1DDF80CC0DBF808
:205110000050DCF81C00A84272D9DBF8086064460EB90AF1A606DBF8047037B9E0890AF11C
:20513000A607AAF8A600DBF80050DAF8140009282CBF4FF002094FF0010975B3DFF8EC8146
:20515000DAF8140009280FD3D8F800004268398820689047D8F80000C268206869469047A4
:20517000BDF8000030800EE0D8F800004268397820689047D8F80000C2682068694690473A
:205190009DF800003070DBF8083003B14E44DBF8043003B14F446D1ED2D12046016848687E
:2051B00020F002004860DBF8047014F032FE04469AF8D80078B117F0704F06D12FB106202A
:2051D00012F096FA042012F093FA022012F090FA00208AF8D800204614F012FFDAF888106D
:2051F00000200874CAF88800012099E0DBF80050DDF808C0DCF80830DCF804401F6894F828
:205210008C00A9B2B7F1804F01FA00F11FFA81F914BF474E474EDBF80870474957B994F82D
:205230008C004FEA800C084600EB0C018A6904F1A6010AE094F88C004FEA800C084600EB38
:205250000C010A6909EB0701491EB2607160014618682A0108303060B56843F6F07E103AB0
:205270000EEA02021543B5601E68B6F1804F14BF324D334DDBF80470C7B96144D8898F6922
:20529000A4F8A60004F1A606AF60039A2E60D2F80080DBF800101E689AF80070724609016A
:2052B000019706F1080010390A4006E061448968A96009EB0701491E29606860A868024326
:2052D000AA605969D4F8A0701869014378680068019D8162706A40F003007062D8F81400C5
:2052F000002D40F00100C8F814007FF47DAFDAF804100AF16C00044614F0BDFA00283FF420
:2053100073AFDAF88800017C012904BF03210174029808F087FC2046002114F0ACFA002098
:2053300005B0BDE8F08FC04600000680C4010010000500203004002078AD0100100500204F
:20535000400400202DE9F04FA54DADF1340D2F680A9017B914F0D4FA2F68A248DFF89CA24A
:205370000678002E3ED00026388979689E4B0796C400097818781034890906D340F64851C2
:2053900091FBF0F1091901F5AF743B7D60438400352B0CBF371C4FF4FA570DF12601E82037
:2053B00011F08CF89DF82600032808BF44F620672868007D3C19352807D113F053F90146BD
:2053D00028686C300FF023FE4443022057468DF8200007F10C000068069406A908F0EEFDEE
:2053F0008248067082490120824F08703978012902D0002102F05AFD28680489466813F043
:2054100067FCDFF8FC813088000946D329684046403890F84070002F3FD081464A6A4F6EAE
:20543000906AB0F1FF3F26D02FB3431C93628862030E07F80139286890F82A0007F80109D8
:20545000286890F8290007F80109286890F8280038702A68106A00940190801B201A80B2D2
:205470000290916A506A92F888203346153007F0F3FC054600E0DB25D9F884706DB11FB919
:20549000E4200DF043F905E05B4900200870E42039468847002D40F09F80214630460DF0F6
:2054B0003FFA642009A911F009F8454651462F78DFF850A1087837B9504600780AF032FD33
:2054D000012805D085E00AF02DFD012840F081804D4DA01C87B20DF1250105F17800078033
:2054F000E92010F0EBFF9DF825004FF000094946012805D13C46C4F3022040F0180005E091
:20551000241DA4B2C4F3022040F0080006F8010D06F8014D2C469DF82470A4F86A10002F9B
:20553000C4F884600CBF394839486186C4F8C000384EC4F8800002208DF8140094F83D0045
:2055500000F0F00040F0030084F83D007068CDF8109080470B90DFF8C080244F0A9804F1AF
:205570003005B346012816D0042814D088B105280CD0032807D150461030007811F024FF17
:20559000C07B022807D004F1680504E0DFF88C8001E004F14C05386A184B066D4946022046
:2055B0008DE80300D86804AA29464346B0471C490880DBF80810002809D41A4A92F90000BA
:2055D0006834401C10700B98FC60884704E00B9888471A200DF09AF80DB0BDE8F08FC0466F
:2055F0003C0F0020C31B0020441C0020F8170020C71C0020791D00206C410020D01A0020F3
:2056100098150020FB0E00209C1300204E9055550E7A555598160020C5B10000C9EC000002
:20563000001B0020CE1C00202DE9F04F0646AE4CDFF8B892DFF8BCA220680F46ADF13C0D60
:205650004FF0000B017DADF80CB0252900F008816C3005A904F0D8FB002818BFC0B240F098
:20567000408101A804A90DF049FD13F0E5FE00280CBF41F2081543F2C82504A901A80DF022
:205690003DFD99F82F10019B32684FF47A784046484308FB1300801A8542C0F2DE80D9F81C
:2056B0000810C91A08FB01F1891A8D4200F3D580854209DD002807DD95FBF8F04FF49161CA
:2056D00000B201FB002030609DF81F0000285CD042F204000DF1350110F0CCFA13F048FADD
:2056F000044606980DA9241A42F2060010F0C2FA9DF834109DF81D00FF2904BF0A218DF8A2
:205710003410FF2808BF0A209DF8342078499DF81C304546B4FBF1F1801880B24843991078
:205730006943814298BF081C41F20814241805A812F0ABFF9DF81C20D6F800C0B0FBF2F19E
:205750005143411A8BB241464B434A43D51AA5EB0C0ED21A6546521B944201D9002A09D516
:205770006242724513D2BEF1000F10D5B4FBF1F10AB203E06200B2FBF1F18AB231684FF4FD
:20579000916303FB0215356001E03568584604460DF1120102A80DF0B1FC0298D9F808100D
:2057B0005E46B5FBF8F210180290814203D999F82F30834204D9534603F158052D7835BB31
:2057D0009DF81C0014190004A04298BF241A9DF81F00002808BF9DF8200016D09DF81C0071
:2057F000B4FBF0F084B29DF8330010F045FE9DF831200146204610F0D7FD044612F032FFE5
:20581000024608A9204610F0B0FB54460DE0814204D8BDF81200401CADF812005446BDF81F
:20583000120094F85B100EF0C9F838702E4D84F8B5002868007D052810D12F48007868B911
:20585000387803A9ADF80C0042F20C0005F094FABDF80C00A4F8B00000E06526304640E05A
:2058700013F0EAFD00280CBF41F2081543F2C825224800784FF47A7404FB00F13068491BCA
:20589000A1F5FA62824206D2A1F57A61B0FBF1F24A43801A306068460DF10E010DF02EFCD2
:2058B0003068009999F82F2004FB010154430091611A8D4210DCA4F5FA648C42BCBF00F533
:2058D000FA603060544694F85B10208F0EF076F801465846397002E039785446652084F866
:2058F000B5100FB0BDE8F08F3C0F0020EC3C0020A0860100303C0020E10E00201B3D002003
:205910002DE9F04F09AFADF1540D09910A920B933E79089039680D9602460C91B2E88850AD
:205930006946A1E888508CCA81E88C008069077837F07F070ED0C16887680F9142791097EF
:20595000067912922E2E119602DC11462E290ADA007909E020277E261197D0F8C410129668
:20597000001D10900F912E2013901EE1119ABDF90810BA424FEA420002DC129ABA4203DA77
:20599000139AC0EB420003E0119A7800A0EB4200109A0F9F099E105A0B9D38180E90721CFD
:2059B0000992401C047807902819814200F3FA8000250226A9462F460E9890F800A0B245E6
:2059D00040F3F080BDF90E00B842C0F2EB800698007810F07F0F18D00E98835D7BB980195A
:2059F000407830F07F0305D14FEAC008B61C4FF0000B82E04006B61C4FEA905B84E04FEA0F
:205A1000231803F00F0B761C77E04FF0000802E0761C4FF00009B2450EDD0E98805D00FAE3
:205A300009F013F0F1FB0828C8BFC9F1080080448144B9F1080FEBD04FF0000B02E0761C32
:205A50004FF00009B24558DD0E98805D00FA09F0C04313F0D9FB0828C8BFC9F10800834432
:205A70008144B9F1080FEAD047E0B8F1020F22DB681C84421FDDBDF90A0008EB05018C422B
:205A9000B4BFA4EB050AC246B84210DC0D9B73B10B9C0898291940690C9C0AEB01020490C5
:205AB0003B19521E684610F085FA07980478A8EB0A0855441DE00B98BDF9083029188B42F0
:205AD00014DCBDF90C00884210DBBDF90A00B8420CDC0D9B53B1089B58680C9A9B8A89B298
:205AF000BA1892B213F0BBFF07980478A8F101086D1CAC4204BF7F1C0025B8F1000F03D081
:205B1000BDF90E00B842B0DABBF1000F3FF454AFBDF90E00B842FFF64FAFBBF1020F20DBD3
:205B3000681C84421DDDBDF90A000BEB05018C42B4BFA4EB0508D846B8420EDC0B9C08982F
:205B5000291900690C9C08EB010204903B19521E684610F02FFA07980478ABEB080B454470
:205B70001BE00B98BDF9083029188B4212DCBDF90C0088420EDBBDF90A00B8420ADC089BD5
:205B900058680C9A1B8A89B2BA1892B213F067FF07980478ABF1010B6D1CAC4204BF7F1C98
:205BB0000025B1E70B9824180B94099890F900705FB10A98401EB0F1FF3F0A9005D0BDF9EC
:205BD0000C000B998842BFF6D1AE15B0BDE8F08F2DE9F04F002898461446ADF12C0D00F0A2
:205BF000F78011F47C1F40F0F08011F00F0F00F0EF8007460591002006900A904FF0000AE4
:205C10000990554608954FF0010BCDF810B0054650460790059805990BEA000021EA0B0114
:205C30004FEA4B0B401E059100F0AF80401E74D0801E61D0001F40F0C28042F205000DF179
:205C50000E0110F017F89DF80E00002800F0B7801CB1276694F86B0006900720152607F8DC
:205C7000010B022301A907F8016B42F2010007F8013B0FF0FFFF684603A90DF03FFA069833
:205C90000FF0ACFF0099019A3E4640180090824206D8801ABDF80C300090581CADF80C00C8
:205CB000009B50085146814609041804030C19430004534610EB090041EB0A0102F0FAFD2E
:205CD000BF1D0090BDF80C309DF80C009DF8002006F8010B181206F8010B9DF8011006F81F
:205CF000012B9DF8023006F8011B9DF8032006F8013B0935327061E00220152607F8010B0C
:205D1000042307F8016BB8F1000F07F8013B0CBF099898F800002D1D4EE01CB1E76594F8D5
:205D30006B00069005201526049B07F8010B0DF10F0107F8016B42F2040007F8013B0FF05D
:205D500099FF02A810F0CCFF06980FF047FF02999DF80F209DF80F60069B0918080200EB29
:205D70006200B0FBF6F002903E469DF808109DF8092006F8013B3F1D06F8011B9DF80A3020
:205D900006F8012BED1D337018E00320152607F8010BB8F1000F07F8016B034607F8013B14
:205DB00004BF0A9807F8010B05D098F8000007F8010B98F801006D1D07F8010BADB20598D1
:205DD00000287FF427AF2E4661E011F00F0F01D000205DE080468A4602264FF4803908F18D
:205DF000020509EA0A002AEA090A4FEA4909B0F580301AD0B0F5803014D0B0F500300ED0B2
:205E1000B0F5802009D0B0F5002004D0B0F580102AD1072404E0062402E0052400E004243F
:205E3000002704E00224012701E001242746A81C214600F091F947B104F00F04C0F30A0124
:205E500041EAC42141F4004105E004F07F0400F0FF0141EA042105F8011B36180912B61CBC
:205E70002970B6B245196D1CBAF1000FB9D1022ED8BF00260BDDB01E4FF6FE7708F8010B7D
:205E9000B819C0F3022040F0A00088F8000030460BB0BDE8F08F70472DE9F04FAC4C04F1AE
:205EB00028000068ADF1240D10F09CFC08B113F023F8A248DFF89CA2DFF888B20068A24E9C
:205ED000089012F0BBFB12F003FEE569A769B5F57A7F13D0C01B4FF47A720023A5FB0001AD
:205EF00002F0E8FC80464FF47A72002313F04CFB2A46002302F0DEFCC01901E0A0EB0708A7
:205F1000A0618D488C49006820F00200086070688047DBF80010DBF8043045466918B1F5A9
:205F30007A7F0DD34FF47A72B1FBF2F2D2184FF47A73CBF804201F46B1FBF7F25A43891A7E
:205F5000CBF80010B168884770688047DAF8041002466818B168CAF8040010468847DAF853
:205F7000000000285FD007464FF00009706880474FF000081FFAA5F3079083B95FFA95F3DA
:205F90006BB93979E8B2884204DD79682846884209D20AE03879E9B2401A387108E07968E0
:205FB0002846884201D3414601E07968091A7960B88878B9FB8853B9FB6843B13B8933B181
:205FD000B87A19460BF06EF8F8687860B88808B9FB880BB13B896BB9B9F1000F04BF386843
:205FF000CAF8000003D03868C9F800003868B846074601E0B9463F68B16807988847B8F1F9
:20601000000F0ED0B8F8043043B9B8F806302BB998F80A00B8F808100BF044F8404612F0B8
:2060300037FD002FA2D144484349006840F002000860E06828B3804723E015F8060C2169CA
:20605000A5F10C07032819D0E16A9DF816000978884210D115F8080C11F07CFEB979012959
:2060700003D0022908BFA87000E02870002029460EF0E8FC05E012F03FFF02E009B128461B
:20609000884708200727ADF81000716AADF8127004A88847069D0028CFD0294800680088CE
:2060B000C8B1706880472649096800220D880A80B1688847089A00202946207090470546CC
:2060D000FF202070706880471D4909680A8815430D80B168884712F0B1FA0746B7F1FF3F4C
:2060F0001CD0706807B9194F216AB94238BF0F1C80471C230546626AADF802300820ADF83B
:206110000000716A019268468847A16A3846491CA16210F03FFEB1682846884708200A27A7
:20613000ADF808004FF0FF35ADF80A70716A039502A88847C5E6C04610E000E02CB10100C5
:206150005C410020E01C0020981600208EC2F528A01A00203C410020F0B504460846ADF1C9
:206170006C0D401E6BD0401E0DD0801E00F00381401E00F0E980401E00F0DB80401E00F002
:20619000A88000203CE142F2010007A90FF072FD42F20B0008A90FF06DFD42F206000DF1A6
:2061B00065010FF067FD42F207000DF166010FF061FD42F2050019A90FF05CFD04A80AF010
:2061D0007BFE05460DF1670142F209000FF052FD9DF86700002808BF002303D0022011F0F6
:2061F000A2FE034607A8006808A920600988271D3C46B81C218005F007079DF865609DF8A0
:2062100064109DF8662000F8011B9DF8674000F8016B03F0030600F8012B620747EA92617E
:2062300004AC41EA8611012700F8011B9DF8672000942946019707F02BF90A3099E042F2E7
:2062500006000DF165010FF015FD42F207000DF166010FF00FFD42F2040019A90FF00AFD08
:2062700004A80AF029FE05460DF1670142F208000FF000FD9DF86700002808BF002303D077
:20629000012011F050FE03469DF864009DF8657004F8010B9DF8666004F8017B9DF86720DB
:2062B0009DF86770790704F8016B03F0030705F0070646EA916004AE40EA8710294604F87C
:2062D000010B002700962046019707F0E1F8001D4FE042F2150011A90FF0CCFC13AD42F20D
:2062F000160029460FF0C6FC15AE42F2170031460FF0C0FC17AF42F2180039460FF0BAFCC2
:2063100011A801682160406860606A6804F108035A6028681860306803F1080108607468F5
:206330004C60386801F1080528607A686A60202066E042F214000DF122010FF09BFCBDF894
:20635000221002200A1258E009A8002120220CF09BFE42F2130009A90FF08CFC09A813F0A8
:206370003DFA024609A920460BF042FB09A813F035FA80B244E042F20E0002A90FF07AFCA3
:206390000DF10A0142F20F000FF074FC0DF10B0142F20A000FF06EFC03A942F210000FF092
:2063B00069FC0DF10D0142F211000FF063FC0DF10E0142F212000FF05DFCBDF808009DF8BC
:2063D0000B209DF80C709DF80D609DF80E509DF80A1004F8010B02F00102001204F8010BB6
:2063F00007F0010042EA400206F0010042EA800205F0070042EA4012042004F8011B22703A
:206410001BB0F0BD2DE9F04F06469E48001D0068ADF1340D80470B900AA9822004F078FFE7
:206430009DF8280018BB00248DF828404FF6FF75ADF804509DF82800ADF80650FF210822F7
:206450008DF8000002A813F018FD8DF81840D420694602F021FC9DF82800401CC0B28DF846
:2064700028003228E4DB82200AA902F015FC0020DFF808A2DFF808828DF8280081469DF868
:2064900028008DF8019069468DF80000D02004F03FFF01274D46E8B99DF80B30012B07D128
:2064B0009DF80A0020B90DF1020013F03DF888B9747B002C0CBF052209224F469C4209D156
:2064D0000DF1020006F10E0112F032FC002818BF012507D1002F40F0BF801DB9707F0028EE
:2064F00000F0BA804C469DF828008DF8214008A98DF82000D12004F00BFF002832D19DF828
:206510002200FF282ED08DF800006946D42004F0FFFE002833D102A8311D082212F008FCB7
:2065300000B330887788ADF80400ADF8067045B1307B9DF82810B7698DF818000DEB810178
:206550000F61D420694602F0A7FB75B1307F9DF82310884209D08DF8230008A9D12002F008
:206570009BFB02E0641C322CBDDB322C74D14F468DF80070D420694604F0CAFE28B1DAF8E6
:2065900008100B988847192074E002AB184612F0CBFF4C4600B101242046341D30B9184697
:2065B0002146082212F0C4FB00284AD030887388327BADF804009DF82810ADF80630002D59
:2065D0008DF818200DEB810000F110000CBF4946B1690822016002A8214612F0B1FF98F822
:2065F000400030B1D8F890201AB19DF80010204690474C469DF828008DF8214008A98DF8D2
:206610002000D12004F084FEE82807D09DF82200FF2803D0641C322CECDB10E09DF8000021
:206630008DF82490337F8DF8220069468DF82330D42002F031FB08A9D12002F02DFB322C05
:2066500002DB7F1C322F93DB322F05D1DAF808100B9888471A200DE09DF82800401CC0B29E
:2066700002288DF82800FFF60AAFDAF808100B98884748460DB0BDE8F08FC04698160020E6
:2066900058150020981600208D492DE9F04F0A680546ADF16C0D15A8026049684160894C4A
:2066B00094F8B30005F1280A05F12807002800F004816878002840F00081FF20824B8DF877
:2066D00018001E78E86C012105AA02F0D1FBDFF8FC91DFF8048228B99DF8180008B99DF874
:2066F0001C6068BBA88900F00700022814BF04200520A873A88900F00700032807D16B6864
:206710004046001D01681878042800F0958095F83000022814D148460078012810D06C490C
:2067300005F1280002220E46203112F0E3F838B906F116010DF13E0013F04DFB0DF13E07BC
:20675000686E002800F0B980012102AA0BF0B6FD002840F0B2809DF80800A873E86C40B1FF
:20677000394612AA0DF14A03FDF702F8002840F0A4800DF14A000090686E394612AB07F038
:2067900039FB002840F099804846007801284FD04FF4005013A90FF06DFA13A815A908229E
:2067B00012F0A8F830B113A83946082212F0A2F800283DD194F85900002839D0A66CB4F83C
